{
  "_format": "hh-sol-artifact-1",
  "contractName": "TestKeccak",
  "sourceName": "contracts/TestKeccak.sol",
  "abi": [
    {
      "inputs": [
        {
          "internalType": "uint32",
          "name": "iterations",
          "type": "uint32"
        },
        {
          "internalType": "bytes",
          "name": "data",
          "type": "bytes"
        }
      ],
      "name": "hash",
      "outputs": [
        {
          "internalType": "bytes32",
          "name": "result",
          "type": "bytes32"
        }
      ],
      "stateMutability": "pure",
      "type": "function"
    },
    {
      "inputs": [
        {
          "internalType": "uint32",
          "name": "iterations",
          "type": "uint32"
        },
        {
          "internalType": "bytes",
          "name": "data",
          "type": "bytes"
        }
      ],
      "name": "hashAndStore",
      "outputs": [],
      "stateMutability": "nonpayable",
      "type": "function"
    }
  ],
  "bytecode": "0x608060405234801561001057600080fd5b50610401806100206000396000f3fe608060405234801561001057600080fd5b50600436106100365760003560e01c806353d4d0981461003b578063ba0d64711461006b575b600080fd5b610055600480360381019061005091906102a8565b610087565b604051610062919061031d565b60405180910390f35b610085600480360381019061008091906102a8565b6100fe565b005b6000808280519060200120905060005b6001856100a49190610367565b63ffffffff168163ffffffff1610156100f357816040516020016100c8919061031d565b60405160208183030381529060405280519060200120915080806100eb9061039f565b915050610097565b508091505092915050565b6101088282610087565b6000819055505050565b6000604051905090565b600080fd5b600080fd5b600063ffffffff82169050919050565b61013f81610126565b811461014a57600080fd5b50565b60008135905061015c81610136565b92915050565b600080fd5b600080fd5b6000601f19601f8301169050919050565b7f4e487b7100000000000000000000000000000000000000000000000000000000600052604160045260246000fd5b6101b58261016c565b810181811067ffffffffffffffff821117156101d4576101d361017d565b5b80604052505050565b60006101e7610112565b90506101f382826101ac565b919050565b600067ffffffffffffffff8211156102135761021261017d565b5b61021c8261016c565b9050602081019050919050565b82818337600083830152505050565b600061024b610246846101f8565b6101dd565b90508281526020810184848401111561026757610266610167565b5b610272848285610229565b509392505050565b600082601f83011261028f5761028e610162565b5b813561029f848260208601610238565b91505092915050565b600080604083850312156102bf576102be61011c565b5b60006102cd8582860161014d565b925050602083013567ffffffffffffffff8111156102ee576102ed610121565b5b6102fa8582860161027a565b9150509250929050565b6000819050919050565b61031781610304565b82525050565b6000602082019050610332600083018461030e565b92915050565b7f4e487b7100000000000000000000000000000000000000000000000000000000600052601160045260246000fd5b600061037282610126565b915061037d83610126565b9250828203905063ffffffff81111561039957610398610338565b5b92915050565b60006103aa82610126565b915063ffffffff82036103c0576103bf610338565b5b60018201905091905056fea2646970667358221220cb0f75607ca6eafd2caee264ac84a0a61c0840ac35cbb8e0b7c7e97f350a715264736f6c63430008130033",
  "linkReferences": {},
  "deployedLinkReferences": {}
}