{"contracts/TestKeccak.sol":{"TestKeccak":{"abi":[{"inputs":[{"internalType":"uint32","name":"iterations","type":"uint32"},{"internalType":"bytes","name":"data","type":"bytes"}],"name":"hash","outputs":[{"internalType":"bytes32","name":"result","type":"bytes32"}],"stateMutability":"pure","type":"function"},{"inputs":[{"internalType":"uint32","name":"iterations","type":"uint32"},{"internalType":"bytes","name":"data","type":"bytes"}],"name":"hashAndStore","outputs":[],"stateMutability":"nonpayable","type":"function"}],"evm":{"bytecode":{"linkReferences":{},"object":"608060405234801561001057600080fd5b50610401806100206000396000f3fe608060405234801561001057600080fd5b50600436106100365760003560e01c806353d4d0981461003b578063ba0d64711461006b575b600080fd5b610055600480360381019061005091906102a8565b610087565b604051610062919061031d565b60405180910390f35b610085600480360381019061008091906102a8565b6100fe565b005b6000808280519060200120905060005b6001856100a49190610367565b63ffffffff168163ffffffff1610156100f357816040516020016100c8919061031d565b60405160208183030381529060405280519060200120915080806100eb9061039f565b915050610097565b508091505092915050565b6101088282610087565b6000819055505050565b6000604051905090565b600080fd5b600080fd5b600063ffffffff82169050919050565b61013f81610126565b811461014a57600080fd5b50565b60008135905061015c81610136565b92915050565b600080fd5b600080fd5b6000601f19601f8301169050919050565b7f4e487b7100000000000000000000000000000000000000000000000000000000600052604160045260246000fd5b6101b58261016c565b810181811067ffffffffffffffff821117156101d4576101d361017d565b5b80604052505050565b60006101e7610112565b90506101f382826101ac565b919050565b600067ffffffffffffffff8211156102135761021261017d565b5b61021c8261016c565b9050602081019050919050565b82818337600083830152505050565b600061024b610246846101f8565b6101dd565b90508281526020810184848401111561026757610266610167565b5b610272848285610229565b509392505050565b600082601f83011261028f5761028e610162565b5b813561029f848260208601610238565b91505092915050565b600080604083850312156102bf576102be61011c565b5b60006102cd8582860161014d565b925050602083013567ffffffffffffffff8111156102ee576102ed610121565b5b6102fa8582860161027a565b9150509250929050565b6000819050919050565b61031781610304565b82525050565b6000602082019050610332600083018461030e565b92915050565b7f4e487b7100000000000000000000000000000000000000000000000000000000600052601160045260246000fd5b600061037282610126565b915061037d83610126565b9250828203905063ffffffff81111561039957610398610338565b5b92915050565b60006103aa82610126565b915063ffffffff82036103c0576103bf610338565b5b60018201905091905056fea2646970667358221220cb0f75607ca6eafd2caee264ac84a0a61c0840ac35cbb8e0b7c7e97f350a715264736f6c63430008130033","opcodes":"PUSH1 0x80 PUSH1 0x40 MSTORE CALLVALUE DUP1 ISZERO PUSH2 0x10 JUMPI PUSH1 0x0 DUP1 REVERT JUMPDEST POP PUSH2 0x401 DUP1 PUSH2 0x20 PUSH1 0x0 CODECOPY PUSH1 0x0 RETURN INVALID PUSH1 0x80 PUSH1 0x40 MSTORE CALLVALUE DUP1 ISZERO PUSH2 0x10 JUMPI PUSH1 0x0 DUP1 REVERT JUMPDEST POP PUSH1 0x4 CALLDATASIZE LT PUSH2 0x36 JUMPI PUSH1 0x0 CALLDATALOAD PUSH1 0xE0 SHR DUP1 PUSH4 0x53D4D098 EQ PUSH2 0x3B JUMPI DUP1 PUSH4 0xBA0D6471 EQ PUSH2 0x6B JUMPI JUMPDEST PUSH1 0x0 DUP1 REVERT JUMPDEST PUSH2 0x55 PUSH1 0x4 DUP1 CALLDATASIZE SUB DUP2 ADD SWAP1 PUSH2 0x50 SWAP2 SWAP1 PUSH2 0x2A8 JUMP JUMPDEST PUSH2 0x87 JUMP JUMPDEST PUSH1 0x40 MLOAD PUSH2 0x62 SWAP2 SWAP1 PUSH2 0x31D JUMP JUMPDEST PUSH1 0x40 MLOAD DUP1 SWAP2 SUB SWAP1 RETURN JUMPDEST PUSH2 0x85 PUSH1 0x4 DUP1 CALLDATASIZE SUB DUP2 ADD SWAP1 PUSH2 0x80 SWAP2 SWAP1 PUSH2 0x2A8 JUMP JUMPDEST PUSH2 0xFE JUMP JUMPDEST STOP JUMPDEST PUSH1 0x0 DUP1 DUP3 DUP1 MLOAD SWAP1 PUSH1 0x20 ADD KECCAK256 SWAP1 POP PUSH1 0x0 JUMPDEST PUSH1 0x1 DUP6 PUSH2 0xA4 SWAP2 SWAP1 PUSH2 0x367 JUMP JUMPDEST PUSH4 0xFFFFFFFF AND DUP2 PUSH4 0xFFFFFFFF AND LT ISZERO PUSH2 0xF3 JUMPI DUP2 PUSH1 0x40 MLOAD PUSH1 0x20 ADD PUSH2 0xC8 SWAP2 SWAP1 PUSH2 0x31D JUMP JUMPDEST PUSH1 0x40 MLOAD PUSH1 0x20 DUP2 DUP4 SUB SUB DUP2 MSTORE SWAP1 PUSH1 0x40 MSTORE DUP1 MLOAD SWAP1 PUSH1 0x20 ADD KECCAK256 SWAP2 POP DUP1 DUP1 PUSH2 0xEB SWAP1 PUSH2 0x39F JUMP JUMPDEST SWAP2 POP POP PUSH2 0x97 JUMP JUMPDEST POP DUP1 SWAP2 POP POP SWAP3 SWAP2 POP POP JUMP JUMPDEST PUSH2 0x108 DUP3 DUP3 PUSH2 0x87 JUMP JUMPDEST PUSH1 0x0 DUP2 SWAP1 SSTORE POP POP POP JUMP JUMPDEST PUSH1 0x0 PUSH1 0x40 MLOAD SWAP1 POP SWAP1 JUMP JUMPDEST PUSH1 0x0 DUP1 REVERT JUMPDEST PUSH1 0x0 DUP1 REVERT JUMPDEST PUSH1 0x0 PUSH4 0xFFFFFFFF DUP3 AND SWAP1 POP SWAP2 SWAP1 POP JUMP JUMPDEST PUSH2 0x13F DUP2 PUSH2 0x126 JUMP JUMPDEST DUP2 EQ PUSH2 0x14A JUMPI PUSH1 0x0 DUP1 REVERT JUMPDEST POP JUMP JUMPDEST PUSH1 0x0 DUP2 CALLDATALOAD SWAP1 POP PUSH2 0x15C DUP2 PUSH2 0x136 JUMP JUMPDEST SWAP3 SWAP2 POP POP JUMP JUMPDEST PUSH1 0x0 DUP1 REVERT JUMPDEST PUSH1 0x0 DUP1 REVERT JUMPDEST PUSH1 0x0 PUSH1 0x1F NOT PUSH1 0x1F DUP4 ADD AND SWAP1 POP SWAP2 SWAP1 POP JUMP JUMPDEST PUSH32 0x4E487B7100000000000000000000000000000000000000000000000000000000 PUSH1 0x0 MSTORE PUSH1 0x41 PUSH1 0x4 MSTORE PUSH1 0x24 PUSH1 0x0 REVERT JUMPDEST PUSH2 0x1B5 DUP3 PUSH2 0x16C JUMP JUMPDEST DUP2 ADD DUP2 DUP2 LT PUSH8 0xFFFFFFFFFFFFFFFF DUP3 GT OR ISZERO PUSH2 0x1D4 JUMPI PUSH2 0x1D3 PUSH2 0x17D JUMP JUMPDEST JUMPDEST DUP1 PUSH1 0x40 MSTORE POP POP POP JUMP JUMPDEST PUSH1 0x0 PUSH2 0x1E7 PUSH2 0x112 JUMP JUMPDEST SWAP1 POP PUSH2 0x1F3 DUP3 DUP3 PUSH2 0x1AC JUMP JUMPDEST SWAP2 SWAP1 POP JUMP JUMPDEST PUSH1 0x0 PUSH8 0xFFFFFFFFFFFFFFFF DUP3 GT ISZERO PUSH2 0x213 JUMPI PUSH2 0x212 PUSH2 0x17D JUMP JUMPDEST JUMPDEST PUSH2 0x21C DUP3 PUSH2 0x16C JUMP JUMPDEST SWAP1 POP PUSH1 0x20 DUP2 ADD SWAP1 POP SWAP2 SWAP1 POP JUMP JUMPDEST DUP3 DUP2 DUP4 CALLDATACOPY PUSH1 0x0 DUP4 DUP4 ADD MSTORE POP POP POP JUMP JUMPDEST PUSH1 0x0 PUSH2 0x24B PUSH2 0x246 DUP5 PUSH2 0x1F8 JUMP JUMPDEST PUSH2 0x1DD JUMP JUMPDEST SWAP1 POP DUP3 DUP2 MSTORE PUSH1 0x20 DUP2 ADD DUP5 DUP5 DUP5 ADD GT ISZERO PUSH2 0x267 JUMPI PUSH2 0x266 PUSH2 0x167 JUMP JUMPDEST JUMPDEST PUSH2 0x272 DUP5 DUP3 DUP6 PUSH2 0x229 JUMP JUMPDEST POP SWAP4 SWAP3 POP POP POP JUMP JUMPDEST PUSH1 0x0 DUP3 PUSH1 0x1F DUP4 ADD SLT PUSH2 0x28F JUMPI PUSH2 0x28E PUSH2 0x162 JUMP JUMPDEST JUMPDEST DUP2 CALLDATALOAD PUSH2 0x29F DUP5 DUP3 PUSH1 0x20 DUP7 ADD PUSH2 0x238 JUMP JUMPDEST SWAP2 POP POP SWAP3 SWAP2 POP POP JUMP JUMPDEST PUSH1 0x0 DUP1 PUSH1 0x40 DUP4 DUP6 SUB SLT ISZERO PUSH2 0x2BF JUMPI PUSH2 0x2BE PUSH2 0x11C JUMP JUMPDEST JUMPDEST PUSH1 0x0 PUSH2 0x2CD DUP6 DUP3 DUP7 ADD PUSH2 0x14D JUMP JUMPDEST SWAP3 POP POP PUSH1 0x20 DUP4 ADD CALLDATALOAD PUSH8 0xFFFFFFFFFFFFFFFF DUP2 GT ISZERO PUSH2 0x2EE JUMPI PUSH2 0x2ED PUSH2 0x121 JUMP JUMPDEST JUMPDEST PUSH2 0x2FA DUP6 DUP3 DUP7 ADD PUSH2 0x27A JUMP JUMPDEST SWAP2 POP POP SWAP3 POP SWAP3 SWAP1 POP JUMP JUMPDEST PUSH1 0x0 DUP2 SWAP1 POP SWAP2 SWAP1 POP JUMP JUMPDEST PUSH2 0x317 DUP2 PUSH2 0x304 JUMP JUMPDEST DUP3 MSTORE POP POP JUMP JUMPDEST PUSH1 0x0 PUSH1 0x20 DUP3 ADD SWAP1 POP PUSH2 0x332 PUSH1 0x0 DUP4 ADD DUP5 PUSH2 0x30E JUMP JUMPDEST SWAP3 SWAP2 POP POP JUMP JUMPDEST PUSH32 0x4E487B7100000000000000000000000000000000000000000000000000000000 PUSH1 0x0 MSTORE PUSH1 0x11 PUSH1 0x4 MSTORE PUSH1 0x24 PUSH1 0x0 REVERT JUMPDEST PUSH1 0x0 PUSH2 0x372 DUP3 PUSH2 0x126 JUMP JUMPDEST SWAP2 POP PUSH2 0x37D DUP4 PUSH2 0x126 JUMP JUMPDEST SWAP3 POP DUP3 DUP3 SUB SWAP1 POP PUSH4 0xFFFFFFFF DUP2 GT ISZERO PUSH2 0x399 JUMPI PUSH2 0x398 PUSH2 0x338 JUMP JUMPDEST JUMPDEST SWAP3 SWAP2 POP POP JUMP JUMPDEST PUSH1 0x0 PUSH2 0x3AA DUP3 PUSH2 0x126 JUMP JUMPDEST SWAP2 POP PUSH4 0xFFFFFFFF DUP3 SUB PUSH2 0x3C0 JUMPI PUSH2 0x3BF PUSH2 0x338 JUMP JUMPDEST JUMPDEST PUSH1 0x1 DUP3 ADD SWAP1 POP SWAP2 SWAP1 POP JUMP INVALID LOG2 PUSH5 0x6970667358 0x22 SLT KECCAK256 0xCB 0xF PUSH22 0x607CA6EAFD2CAEE264AC84A0A61C0840AC35CBB8E0B7 0xC7 0xE9 PUSH32 0x350A715264736F6C634300081300330000000000000000000000000000000000 "},"methodIdentifiers":{"hash(uint32,bytes)":"53d4d098","hashAndStore(uint32,bytes)":"ba0d6471"}}}}}